{
  "address": "0xeAd789bd8Ce8b9E94F5D0FCa99F8787c7e758817",
  "abi": [
    {
      "inputs": [
        {
          "internalType": "address",
          "name": "VRFCoordinatorV2",
          "type": "address"
        },
        {
          "internalType": "uint64",
          "name": "subId",
          "type": "uint64"
        },
        {
          "internalType": "uint32",
          "name": "callbackGasLimit",
          "type": "uint32"
        },
        {
          "internalType": "bytes32",
          "name": "gasLane",
          "type": "bytes32"
        },
        {
          "internalType": "string[3]",
          "name": "dogTokenUris",
          "type": "string[3]"
        },
        {
          "internalType": "uint256",
          "name": "mintFee",
          "type": "uint256"
        }
      ],
      "stateMutability": "nonpayable",
      "type": "constructor"
    },
    {
      "inputs": [
        {
          "internalType": "address",
          "name": "have",
          "type": "address"
        },
        {
          "internalType": "address",
          "name": "want",
          "type": "address"
        }
      ],
      "name": "OnlyCoordinatorCanFulfill",
      "type": "error"
    },
    {
      "inputs": [],
      "name": "needMoreFunds",
      "type": "error"
    },
    {
      "inputs": [],
      "name": "not_onwer",
      "type": "error"
    },
    {
      "inputs": [],
      "name": "randomlpfsNft__RangeOutOfBounds",
      "type": "error"
    },
    {
      "anonymous": false,
      "inputs": [
        {
          "indexed": true,
          "internalType": "address",
          "name": "owner",
          "type": "address"
        },
        {
          "indexed": true,
          "internalType": "address",
          "name": "approved",
          "type": "address"
        },
        {
          "indexed": true,
          "internalType": "uint256",
          "name": "tokenId",
          "type": "uint256"
        }
      ],
      "name": "Approval",
      "type": "event"
    },
    {
      "anonymous": false,
      "inputs": [
        {
          "indexed": true,
          "internalType": "address",
          "name": "owner",
          "type": "address"
        },
        {
          "indexed": true,
          "internalType": "address",
          "name": "operator",
          "type": "address"
        },
        {
          "indexed": false,
          "internalType": "bool",
          "name": "approved",
          "type": "bool"
        }
      ],
      "name": "ApprovalForAll",
      "type": "event"
    },
    {
      "anonymous": false,
      "inputs": [
        {
          "indexed": true,
          "internalType": "uint256",
          "name": "requestId",
          "type": "uint256"
        },
        {
          "indexed": false,
          "internalType": "address",
          "name": "sender",
          "type": "address"
        }
      ],
      "name": "NFTRequested",
      "type": "event"
    },
    {
      "anonymous": false,
      "inputs": [
        {
          "indexed": false,
          "internalType": "enum randomlpfsNft.Breed",
          "name": "dogBreed",
          "type": "uint8"
        },
        {
          "indexed": false,
          "internalType": "address",
          "name": "onwer",
          "type": "address"
        }
      ],
      "name": "NFTminted",
      "type": "event"
    },
    {
      "anonymous": false,
      "inputs": [
        {
          "indexed": true,
          "internalType": "address",
          "name": "from",
          "type": "address"
        },
        {
          "indexed": true,
          "internalType": "address",
          "name": "to",
          "type": "address"
        },
        {
          "indexed": true,
          "internalType": "uint256",
          "name": "tokenId",
          "type": "uint256"
        }
      ],
      "name": "Transfer",
      "type": "event"
    },
    {
      "inputs": [
        {
          "internalType": "address",
          "name": "to",
          "type": "address"
        },
        {
          "internalType": "uint256",
          "name": "tokenId",
          "type": "uint256"
        }
      ],
      "name": "approve",
      "outputs": [],
      "stateMutability": "nonpayable",
      "type": "function"
    },
    {
      "inputs": [
        {
          "internalType": "address",
          "name": "owner",
          "type": "address"
        }
      ],
      "name": "balanceOf",
      "outputs": [
        {
          "internalType": "uint256",
          "name": "",
          "type": "uint256"
        }
      ],
      "stateMutability": "view",
      "type": "function"
    },
    {
      "inputs": [
        {
          "internalType": "uint256",
          "name": "tokenId",
          "type": "uint256"
        }
      ],
      "name": "getApproved",
      "outputs": [
        {
          "internalType": "address",
          "name": "",
          "type": "address"
        }
      ],
      "stateMutability": "view",
      "type": "function"
    },
    {
      "inputs": [
        {
          "internalType": "uint256",
          "name": "moddedRNG",
          "type": "uint256"
        }
      ],
      "name": "getBreedFromModdedRNG",
      "outputs": [
        {
          "internalType": "enum randomlpfsNft.Breed",
          "name": "",
          "type": "uint8"
        }
      ],
      "stateMutability": "pure",
      "type": "function"
    },
    {
      "inputs": [],
      "name": "getChangeArray",
      "outputs": [
        {
          "internalType": "uint256[3]",
          "name": "",
          "type": "uint256[3]"
        }
      ],
      "stateMutability": "pure",
      "type": "function"
    },
    {
      "inputs": [
        {
          "internalType": "uint256",
          "name": "index",
          "type": "uint256"
        }
      ],
      "name": "getDogTokenUris",
      "outputs": [
        {
          "internalType": "string",
          "name": "",
          "type": "string"
        }
      ],
      "stateMutability": "view",
      "type": "function"
    },
    {
      "inputs": [],
      "name": "getGaslane",
      "outputs": [
        {
          "internalType": "bytes32",
          "name": "",
          "type": "bytes32"
        }
      ],
      "stateMutability": "view",
      "type": "function"
    },
    {
      "inputs": [],
      "name": "getMintFee",
      "outputs": [
        {
          "internalType": "uint256",
          "name": "",
          "type": "uint256"
        }
      ],
      "stateMutability": "view",
      "type": "function"
    },
    {
      "inputs": [],
      "name": "getTokenCounter",
      "outputs": [
        {
          "internalType": "uint256",
          "name": "",
          "type": "uint256"
        }
      ],
      "stateMutability": "view",
      "type": "function"
    },
    {
      "inputs": [
        {
          "internalType": "address",
          "name": "owner",
          "type": "address"
        },
        {
          "internalType": "address",
          "name": "operator",
          "type": "address"
        }
      ],
      "name": "isApprovedForAll",
      "outputs": [
        {
          "internalType": "bool",
          "name": "",
          "type": "bool"
        }
      ],
      "stateMutability": "view",
      "type": "function"
    },
    {
      "inputs": [],
      "name": "name",
      "outputs": [
        {
          "internalType": "string",
          "name": "",
          "type": "string"
        }
      ],
      "stateMutability": "view",
      "type": "function"
    },
    {
      "inputs": [
        {
          "internalType": "uint256",
          "name": "tokenId",
          "type": "uint256"
        }
      ],
      "name": "ownerOf",
      "outputs": [
        {
          "internalType": "address",
          "name": "",
          "type": "address"
        }
      ],
      "stateMutability": "view",
      "type": "function"
    },
    {
      "inputs": [
        {
          "internalType": "uint256",
          "name": "requestId",
          "type": "uint256"
        },
        {
          "internalType": "uint256[]",
          "name": "randomWords",
          "type": "uint256[]"
        }
      ],
      "name": "rawFulfillRandomWords",
      "outputs": [],
      "stateMutability": "nonpayable",
      "type": "function"
    },
    {
      "inputs": [],
      "name": "requestNft",
      "outputs": [
        {
          "internalType": "uint256",
          "name": "requestId",
          "type": "uint256"
        }
      ],
      "stateMutability": "payable",
      "type": "function"
    },
    {
      "inputs": [],
      "name": "s_tokenCounter",
      "outputs": [
        {
          "internalType": "uint256",
          "name": "",
          "type": "uint256"
        }
      ],
      "stateMutability": "view",
      "type": "function"
    },
    {
      "inputs": [
        {
          "internalType": "address",
          "name": "from",
          "type": "address"
        },
        {
          "internalType": "address",
          "name": "to",
          "type": "address"
        },
        {
          "internalType": "uint256",
          "name": "tokenId",
          "type": "uint256"
        }
      ],
      "name": "safeTransferFrom",
      "outputs": [],
      "stateMutability": "nonpayable",
      "type": "function"
    },
    {
      "inputs": [
        {
          "internalType": "address",
          "name": "from",
          "type": "address"
        },
        {
          "internalType": "address",
          "name": "to",
          "type": "address"
        },
        {
          "internalType": "uint256",
          "name": "tokenId",
          "type": "uint256"
        },
        {
          "internalType": "bytes",
          "name": "data",
          "type": "bytes"
        }
      ],
      "name": "safeTransferFrom",
      "outputs": [],
      "stateMutability": "nonpayable",
      "type": "function"
    },
    {
      "inputs": [
        {
          "internalType": "address",
          "name": "operator",
          "type": "address"
        },
        {
          "internalType": "bool",
          "name": "approved",
          "type": "bool"
        }
      ],
      "name": "setApprovalForAll",
      "outputs": [],
      "stateMutability": "nonpayable",
      "type": "function"
    },
    {
      "inputs": [
        {
          "internalType": "bytes4",
          "name": "interfaceId",
          "type": "bytes4"
        }
      ],
      "name": "supportsInterface",
      "outputs": [
        {
          "internalType": "bool",
          "name": "",
          "type": "bool"
        }
      ],
      "stateMutability": "view",
      "type": "function"
    },
    {
      "inputs": [],
      "name": "symbol",
      "outputs": [
        {
          "internalType": "string",
          "name": "",
          "type": "string"
        }
      ],
      "stateMutability": "view",
      "type": "function"
    },
    {
      "inputs": [
        {
          "internalType": "uint256",
          "name": "tokenId",
          "type": "uint256"
        }
      ],
      "name": "tokenURI",
      "outputs": [
        {
          "internalType": "string",
          "name": "",
          "type": "string"
        }
      ],
      "stateMutability": "view",
      "type": "function"
    },
    {
      "inputs": [
        {
          "internalType": "address",
          "name": "from",
          "type": "address"
        },
        {
          "internalType": "address",
          "name": "to",
          "type": "address"
        },
        {
          "internalType": "uint256",
          "name": "tokenId",
          "type": "uint256"
        }
      ],
      "name": "transferFrom",
      "outputs": [],
      "stateMutability": "nonpayable",
      "type": "function"
    },
    {
      "inputs": [],
      "name": "withdraw",
      "outputs": [],
      "stateMutability": "nonpayable",
      "type": "function"
    }
  ],
  "transactionHash": "0xcf6d5577e701d2849e2464d41054e7a1347bcd869dc1ce0e9600e7479b5d9202",
  "args": [
    "0x0a17FabeA4633ce714F1Fa4a2dcA62C3bAc4758d",
    "1",
    "500000",
    "0xd89b2bf150e3b9e13446986e571fb9cab24b13cea0a43ea20a6049a85cc807cc",
    [
      "ipfs://QmeaKXvbjjnttzu4ttAzjDQ2wHR97uCX84LyyAyLMtLagm",
      "ipfs://QmdMxiRBPe1FwSacZyEwgjhYTcETtEhuYfbB6MHzKrKtax",
      "ipfs://QmNar3TbzUL2zidUcevQnpudrRmqaE3Coy3hRHtJwHghod"
    ],
    "10000000000000000"
  ],
  "numDeployments": 1,
  "solcInputHash": "10ba3e4992650556ffb9f868484236aa",
  "bytecode": "0x6101606040523480156200001257600080fd5b506040516200401e3803806200401e833981810160405281019062000038919062000755565b6040518060400160405280600f81526020017f52616e646f6d2049504653204e465400000000000000000000000000000000008152506040518060400160405280600181526020017f5200000000000000000000000000000000000000000000000000000000000000815250878073ffffffffffffffffffffffffffffffffffffffff1660808173ffffffffffffffffffffffffffffffffffffffff1660601b81525050508160009080519060200190620000f5929190620001e8565b5080600190805190602001906200010e929190620001e8565b5050508573ffffffffffffffffffffffffffffffffffffffff1660a08173ffffffffffffffffffffffffffffffffffffffff1660601b815250508467ffffffffffffffff1660c08167ffffffffffffffff1660c01b815250508363ffffffff1660e08163ffffffff1660e01b815250508261010081815250508160099060036200019a92919062000279565b508061012081815250503373ffffffffffffffffffffffffffffffffffffffff166101408173ffffffffffffffffffffffffffffffffffffffff1660601b8152505050505050505062000875565b828054620001f6906200083f565b90600052602060002090601f0160209004810192826200021a576000855562000266565b82601f106200023557805160ff191683800117855562000266565b8280016001018555821562000266579182015b828111156200026557825182559160200191906001019062000248565b5b509050620002759190620002e0565b5090565b828054828255906000526020600020908101928215620002cd579160200282015b82811115620002cc578251829080519060200190620002bb929190620001e8565b50916020019190600101906200029a565b5b509050620002dc9190620002ff565b5090565b5b80821115620002fb576000816000905550600101620002e1565b5090565b5b8082111562000323576000818162000319919062000327565b5060010162000300565b5090565b50805462000335906200083f565b6000825580601f106200034957506200036a565b601f016020900490600052602060002090810190620003699190620002e0565b5b50565b6000604051905090565b600080fd5b600080fd5b600073ffffffffffffffffffffffffffffffffffffffff82169050919050565b6000620003ae8262000381565b9050919050565b620003c081620003a1565b8114620003cc57600080fd5b50565b600081519050620003e081620003b5565b92915050565b600067ffffffffffffffff82169050919050565b6200040581620003e6565b81146200041157600080fd5b50565b6000815190506200042581620003fa565b92915050565b600063ffffffff82169050919050565b62000446816200042b565b81146200045257600080fd5b50565b60008151905062000466816200043b565b92915050565b6000819050919050565b62000481816200046c565b81146200048d57600080fd5b50565b600081519050620004a18162000476565b92915050565b600080fd5b6000601f19601f8301169050919050565b7f4e487b7100000000000000000000000000000000000000000000000000000000600052604160045260246000fd5b620004f782620004ac565b810181811067ffffffffffffffff82111715620005195762000518620004bd565b5b80604052505050565b60006200052e6200036d565b90506200053c8282620004ec565b919050565b600067ffffffffffffffff8211156200055f576200055e620004bd565b5b602082029050919050565b600080fd5b600080fd5b600067ffffffffffffffff821115620005925762000591620004bd565b5b6200059d82620004ac565b9050602081019050919050565b60005b83811015620005ca578082015181840152602081019050620005ad565b83811115620005da576000848401525b50505050565b6000620005f7620005f18462000574565b62000522565b9050828152602081018484840111156200061657620006156200056f565b5b62000623848285620005aa565b509392505050565b600082601f830112620006435762000642620004a7565b5b815162000655848260208601620005e0565b91505092915050565b6000620006756200066f8462000541565b62000522565b905080602084028301858111156200069257620006916200056a565b5b835b81811015620006e057805167ffffffffffffffff811115620006bb57620006ba620004a7565b5b808601620006ca89826200062b565b8552602085019450505060208101905062000694565b5050509392505050565b600082601f830112620007025762000701620004a7565b5b6003620007118482856200065e565b91505092915050565b6000819050919050565b6200072f816200071a565b81146200073b57600080fd5b50565b6000815190506200074f8162000724565b92915050565b60008060008060008060c0878903121562000775576200077462000377565b5b60006200078589828a01620003cf565b96505060206200079889828a0162000414565b9550506040620007ab89828a0162000455565b9450506060620007be89828a0162000490565b935050608087015167ffffffffffffffff811115620007e257620007e16200037c565b5b620007f089828a01620006ea565b92505060a06200080389828a016200073e565b9150509295509295509295565b7f4e487b7100000000000000000000000000000000000000000000000000000000600052602260045260246000fd5b600060028204905060018216806200085857607f821691505b602082108114156200086f576200086e62000810565b5b50919050565b60805160601c60a05160601c60c05160c01c60e05160e01c61010051610120516101405160601c613723620008fb60003960008181610b110152610b98015260008181610dfb0152610ecb015260008181610f61015261112d01526000610fa501526000610f8201526000610f2501526000818161085f01526108b301526137236000f3fe6080604052600436106101405760003560e01c80636352211e116100b6578063aa1524911161006f578063aa1524911461046e578063b88d4fde1461048c578063bafe1a9e146104b5578063c87b56dd146104e0578063d4d95b7f1461051d578063e985e9c51461054857610140565b80636352211e1461034a5780636e02007d1461038757806370a08231146103b25780637a5caab3146103ef57806395d89b411461041a578063a22cb4651461044557610140565b80631fe543e3116101085780631fe543e31461023e57806323b872dd146102675780633af25975146102905780633b82170c146102cd5780633ccfd60b1461030a57806342842e0e1461032157610140565b806301ffc9a71461014557806306fdde0314610182578063081812fc146101ad578063095ea7b3146101ea5780630b21a83b14610213575b600080fd5b34801561015157600080fd5b5061016c60048036038101906101679190612303565b610585565b604051610179919061234b565b60405180910390f35b34801561018e57600080fd5b50610197610667565b6040516101a491906123ff565b60405180910390f35b3480156101b957600080fd5b506101d460048036038101906101cf9190612457565b6106f9565b6040516101e191906124c5565b60405180910390f35b3480156101f657600080fd5b50610211600480360381019061020c919061250c565b61073f565b005b34801561021f57600080fd5b50610228610857565b604051610235919061255b565b60405180910390f35b34801561024a57600080fd5b50610265600480360381019061026091906126be565b61085d565b005b34801561027357600080fd5b5061028e6004803603810190610289919061271a565b61091d565b005b34801561029c57600080fd5b506102b760048036038101906102b29190612457565b61097d565b6040516102c491906123ff565b60405180910390f35b3480156102d957600080fd5b506102f460048036038101906102ef9190612457565b610a2d565b60405161030191906127e4565b60405180910390f35b34801561031657600080fd5b5061031f610b0f565b005b34801561032d57600080fd5b506103486004803603810190610343919061271a565b610c63565b005b34801561035657600080fd5b50610371600480360381019061036c9190612457565b610c83565b60405161037e91906124c5565b60405180910390f35b34801561039357600080fd5b5061039c610d35565b6040516103a9919061255b565b60405180910390f35b3480156103be57600080fd5b506103d960048036038101906103d491906127ff565b610d3f565b6040516103e6919061255b565b60405180910390f35b3480156103fb57600080fd5b50610404610df7565b604051610411919061255b565b60405180910390f35b34801561042657600080fd5b5061042f610e1f565b60405161043c91906123ff565b60405180910390f35b34801561045157600080fd5b5061046c60048036038101906104679190612858565b610eb1565b005b610476610ec7565b604051610483919061255b565b60405180910390f35b34801561049857600080fd5b506104b360048036038101906104ae919061294d565b6110c7565b005b3480156104c157600080fd5b506104ca611129565b6040516104d791906129e9565b60405180910390f35b3480156104ec57600080fd5b5061050760048036038101906105029190612457565b611151565b60405161051491906123ff565b60405180910390f35b34801561052957600080fd5b50610532611264565b60405161053f9190612aaf565b60405180910390f35b34801561055457600080fd5b5061056f600480360381019061056a9190612aca565b61128f565b60405161057c919061234b565b60405180910390f35b60007f80ac58cd000000000000000000000000000000000000000000000000000000007bffffffffffffffffffffffffffffffffffffffffffffffffffffffff1916827bffffffffffffffffffffffffffffffffffffffffffffffffffffffff1916148061065057507f5b5e139f000000000000000000000000000000000000000000000000000000007bffffffffffffffffffffffffffffffffffffffffffffffffffffffff1916827bffffffffffffffffffffffffffffffffffffffffffffffffffffffff1916145b80610660575061065f82611323565b5b9050919050565b60606000805461067690612b39565b80601f01602080910402602001604051908101604052809291908181526020018280546106a290612b39565b80156106ef5780601f106106c4576101008083540402835291602001916106ef565b820191906000526020600020905b8154815290600101906020018083116106d257829003601f168201915b5050505050905090565b60006107048261138d565b6004600083815260200190815260200160002060009054906101000a900473ffffffffffffffffffffffffffffffffffffffff169050919050565b600061074a82610c83565b90508073ffffffffffffffffffffffffffffffffffffffff168373ffffffffffffffffffffffffffffffffffffffff1614156107bb576040517f08c379a00000000000000000000000000000000000000000000000000000000081526004016107b290612bdd565b60405180910390fd5b8073ffffffffffffffffffffffffffffffffffffffff166107da6113d8565b73ffffffffffffffffffffffffffffffffffffffff1614806108095750610808816108036113d8565b61128f565b5b610848576040517f08c379a000000000000000000000000000000000000000000000000000000000815260040161083f90612c6f565b60405180910390fd5b61085283836113e0565b505050565b60085481565b7f000000000000000000000000000000000000000000000000000000000000000073ffffffffffffffffffffffffffffffffffffffff163373ffffffffffffffffffffffffffffffffffffffff161461090f57337f00000000000000000000000000000000000000000000000000000000000000006040517f1cf993f4000000000000000000000000000000000000000000000000000000008152600401610906929190612c8f565b60405180910390fd5b6109198282611499565b5050565b61092e6109286113d8565b82611636565b61096d576040517f08c379a000000000000000000000000000000000000000000000000000000000815260040161096490612d2a565b60405180910390fd5b6109788383836116cb565b505050565b60606009828154811061099357610992612d4a565b5b9060005260206000200180546109a890612b39565b80601f01602080910402602001604051908101604052809291908181526020018280546109d490612b39565b8015610a215780601f106109f657610100808354040283529160200191610a21565b820191906000526020600020905b815481529060010190602001808311610a0457829003601f168201915b50505050509050919050565b600080600090506000610a3e611264565b905060005b6003811015610ad757828510158015610a7d5750818160038110610a6a57610a69612d4a565b5b602002015183610a7a9190612da8565b85105b15610a9f57806002811115610a9557610a9461276d565b5b9350505050610b0a565b818160038110610ab257610ab1612d4a565b5b602002015183610ac29190612da8565b92508080610acf90612dfe565b915050610a43565b506040517fbd888b3500000000000000000000000000000000000000000000000000000000815260040160405180910390fd5b919050565b7f000000000000000000000000000000000000000000000000000000000000000073ffffffffffffffffffffffffffffffffffffffff163373ffffffffffffffffffffffffffffffffffffffff1614610b94576040517f6b60b23700000000000000000000000000000000000000000000000000000000815260040160405180910390fd5b60007f000000000000000000000000000000000000000000000000000000000000000073ffffffffffffffffffffffffffffffffffffffff1647604051610bda90612e78565b60006040518083038185875af1925050503d8060008114610c17576040519150601f19603f3d011682016040523d82523d6000602084013e610c1c565b606091505b5050905080610c60576040517f08c379a0000000000000000000000000000000000000000000000000000000008152600401610c5790612ed9565b60405180910390fd5b50565b610c7e838383604051806020016040528060008152506110c7565b505050565b6000806002600084815260200190815260200160002060009054906101000a900473ffffffffffffffffffffffffffffffffffffffff169050600073ffffffffffffffffffffffffffffffffffffffff168173ffffffffffffffffffffffffffffffffffffffff161415610d2c576040517f08c379a0000000000000000000000000000000000000000000000000000000008152600401610d2390612f45565b60405180910390fd5b80915050919050565b6000600854905090565b60008073ffffffffffffffffffffffffffffffffffffffff168273ffffffffffffffffffffffffffffffffffffffff161415610db0576040517f08c379a0000000000000000000000000000000000000000000000000000000008152600401610da790612fd7565b60405180910390fd5b600360008373ffffffffffffffffffffffffffffffffffffffff1673ffffffffffffffffffffffffffffffffffffffff168152602001908152602001600020549050919050565b60007f0000000000000000000000000000000000000000000000000000000000000000905090565b606060018054610e2e90612b39565b80601f0160208091040260200160405190810160405280929190818152602001828054610e5a90612b39565b8015610ea75780601f10610e7c57610100808354040283529160200191610ea7565b820191906000526020600020905b815481529060010190602001808311610e8a57829003601f168201915b5050505050905090565b610ec3610ebc6113d8565b8383611932565b5050565b60007f0000000000000000000000000000000000000000000000000000000000000000341015610f23576040517f8cc32bcf00000000000000000000000000000000000000000000000000000000815260040160405180910390fd5b7f000000000000000000000000000000000000000000000000000000000000000073ffffffffffffffffffffffffffffffffffffffff16635d3b1d307f00000000000000000000000000000000000000000000000000000000000000007f000000000000000000000000000000000000000000000000000000000000000060037f000000000000000000000000000000000000000000000000000000000000000060016040518663ffffffff1660e01b8152600401610fe695949392919061309b565b602060405180830381600087803b15801561100057600080fd5b505af1158015611014573d6000803e3d6000fd5b505050506040513d601f19601f820116820180604052508101906110389190613103565b9050336007600083815260200190815260200160002060006101000a81548173ffffffffffffffffffffffffffffffffffffffff021916908373ffffffffffffffffffffffffffffffffffffffff160217905550807f4e1c2f1eae56e29ec039a2b882eec626e6c420ed5a5b93a203c8b8b695e911b1336040516110bc91906124c5565b60405180910390a290565b6110d86110d26113d8565b83611636565b611117576040517f08c379a000000000000000000000000000000000000000000000000000000000815260040161110e90612d2a565b60405180910390fd5b61112384848484611a9f565b50505050565b60007f0000000000000000000000000000000000000000000000000000000000000000905090565b606061115c8261138d565b600060066000848152602001908152602001600020805461117c90612b39565b80601f01602080910402602001604051908101604052809291908181526020018280546111a890612b39565b80156111f55780601f106111ca576101008083540402835291602001916111f5565b820191906000526020600020905b8154815290600101906020018083116111d857829003601f168201915b505050505090506000611206611afb565b905060008151141561121c57819250505061125f565b60008251111561125157808260405160200161123992919061316c565b6040516020818303038152906040529250505061125f565b61125a84611b12565b925050505b919050565b61126c6121d2565b6040518060600160405280600a8152602001601e81526020016064815250905090565b6000600560008473ffffffffffffffffffffffffffffffffffffffff1673ffffffffffffffffffffffffffffffffffffffff16815260200190815260200160002060008373ffffffffffffffffffffffffffffffffffffffff1673ffffffffffffffffffffffffffffffffffffffff16815260200190815260200160002060009054906101000a900460ff16905092915050565b60007f01ffc9a7000000000000000000000000000000000000000000000000000000007bffffffffffffffffffffffffffffffffffffffffffffffffffffffff1916827bffffffffffffffffffffffffffffffffffffffffffffffffffffffff1916149050919050565b61139681611b7a565b6113d5576040517f08c379a00000000000000000000000000000000000000000000000000000000081526004016113cc90612f45565b60405180910390fd5b50565b600033905090565b816004600083815260200190815260200160002060006101000a81548173ffffffffffffffffffffffffffffffffffffffff021916908373ffffffffffffffffffffffffffffffffffffffff160217905550808273ffffffffffffffffffffffffffffffffffffffff1661145383610c83565b73ffffffffffffffffffffffffffffffffffffffff167f8c5be1e5ebec7d5bd14f71427d1e84f3dd0314c0f7b2291e5b200ac8c7c3b92560405160405180910390a45050565b60006007600084815260200190815260200160002060009054906101000a900473ffffffffffffffffffffffffffffffffffffffff1690506000600854905060006064846000815181106114f0576114ef612d4a565b5b602002602001015161150291906131bf565b9050600061150f82610a2d565b90506008600081548092919061152490612dfe565b91905055506115eb8360098360028111156115425761154161276d565b5b8154811061155357611552612d4a565b5b90600052602060002001805461156890612b39565b80601f016020809104026020016040519081016040528092919081815260200182805461159490612b39565b80156115e15780601f106115b6576101008083540402835291602001916115e1565b820191906000526020600020905b8154815290600101906020018083116115c457829003601f168201915b5050505050611be6565b6115f58484611c5a565b7f90fa32e3fe9fb40a9df8c13411bef3430cfd4ef3c7dab6a9e94edce9e8123fb781856040516116269291906131f0565b60405180910390a1505050505050565b60008061164283610c83565b90508073ffffffffffffffffffffffffffffffffffffffff168473ffffffffffffffffffffffffffffffffffffffff1614806116845750611683818561128f565b5b806116c257508373ffffffffffffffffffffffffffffffffffffffff166116aa846106f9565b73ffffffffffffffffffffffffffffffffffffffff16145b91505092915050565b8273ffffffffffffffffffffffffffffffffffffffff166116eb82610c83565b73ffffffffffffffffffffffffffffffffffffffff1614611741576040517f08c379a00000000000000000000000000000000000000000000000000000000081526004016117389061328b565b60405180910390fd5b600073ffffffffffffffffffffffffffffffffffffffff168273ffffffffffffffffffffffffffffffffffffffff1614156117b1576040517f08c379a00000000000000000000000000000000000000000000000000000000081526004016117a89061331d565b60405180910390fd5b6117bc838383611c78565b6117c76000826113e0565b6001600360008573ffffffffffffffffffffffffffffffffffffffff1673ffffffffffffffffffffffffffffffffffffffff1681526020019081526020016000206000828254611817919061333d565b925050819055506001600360008473ffffffffffffffffffffffffffffffffffffffff1673ffffffffffffffffffffffffffffffffffffffff168152602001908152602001600020600082825461186e9190612da8565b92505081905550816002600083815260200190815260200160002060006101000a81548173ffffffffffffffffffffffffffffffffffffffff021916908373ffffffffffffffffffffffffffffffffffffffff160217905550808273ffffffffffffffffffffffffffffffffffffffff168473ffffffffffffffffffffffffffffffffffffffff167fddf252ad1be2c89b69c2b068fc378daa952ba7f163c4a11628f55a4df523b3ef60405160405180910390a461192d838383611c7d565b505050565b8173ffffffffffffffffffffffffffffffffffffffff168373ffffffffffffffffffffffffffffffffffffffff1614156119a1576040517f08c379a0000000000000000000000000000000000000000000000000000000008152600401611998906133bd565b60405180910390fd5b80600560008573ffffffffffffffffffffffffffffffffffffffff1673ffffffffffffffffffffffffffffffffffffffff16815260200190815260200160002060008473ffffffffffffffffffffffffffffffffffffffff1673ffffffffffffffffffffffffffffffffffffffff16815260200190815260200160002060006101000a81548160ff0219169083151502179055508173ffffffffffffffffffffffffffffffffffffffff168373ffffffffffffffffffffffffffffffffffffffff167f17307eab39ab6107e8899845ad3d59bd9653f200f220920489ca2b5937696c3183604051611a92919061234b565b60405180910390a3505050565b611aaa8484846116cb565b611ab684848484611c82565b611af5576040517f08c379a0000000000000000000000000000000000000000000000000000000008152600401611aec9061344f565b60405180910390fd5b50505050565b606060405180602001604052806000815250905090565b6060611b1d8261138d565b6000611b27611afb565b90506000815111611b475760405180602001604052806000815250611b72565b80611b5184611e19565b604051602001611b6292919061316c565b6040516020818303038152906040525b915050919050565b60008073ffffffffffffffffffffffffffffffffffffffff166002600084815260200190815260200160002060009054906101000a900473ffffffffffffffffffffffffffffffffffffffff1673ffffffffffffffffffffffffffffffffffffffff1614159050919050565b611bef82611b7a565b611c2e576040517f08c379a0000000000000000000000000000000000000000000000000000000008152600401611c25906134e1565b60405180910390fd5b80600660008481526020019081526020016000209080519060200190611c559291906121f4565b505050565b611c74828260405180602001604052806000815250611f7a565b5050565b505050565b505050565b6000611ca38473ffffffffffffffffffffffffffffffffffffffff16611fd5565b15611e0c578373ffffffffffffffffffffffffffffffffffffffff1663150b7a02611ccc6113d8565b8786866040518563ffffffff1660e01b8152600401611cee9493929190613556565b602060405180830381600087803b158015611d0857600080fd5b505af1925050508015611d3957506040513d601f19601f82011682018060405250810190611d3691906135b7565b60015b611dbc573d8060008114611d69576040519150601f19603f3d011682016040523d82523d6000602084013e611d6e565b606091505b50600081511415611db4576040517f08c379a0000000000000000000000000000000000000000000000000000000008152600401611dab9061344f565b60405180910390fd5b805181602001fd5b63150b7a0260e01b7bffffffffffffffffffffffffffffffffffffffffffffffffffffffff1916817bffffffffffffffffffffffffffffffffffffffffffffffffffffffff191614915050611e11565b600190505b949350505050565b60606000821415611e61576040518060400160405280600181526020017f30000000000000000000000000000000000000000000000000000000000000008152509050611f75565b600082905060005b60008214611e93578080611e7c90612dfe565b915050600a82611e8c91906135e4565b9150611e69565b60008167ffffffffffffffff811115611eaf57611eae61257b565b5b6040519080825280601f01601f191660200182016040528015611ee15781602001600182028036833780820191505090505b5090505b60008514611f6e57600182611efa919061333d565b9150600a85611f0991906131bf565b6030611f159190612da8565b60f81b818381518110611f2b57611f2a612d4a565b5b60200101907effffffffffffffffffffffffffffffffffffffffffffffffffffffffffffff1916908160001a905350600a85611f6791906135e4565b9450611ee5565b8093505050505b919050565b611f848383611ff8565b611f916000848484611c82565b611fd0576040517f08c379a0000000000000000000000000000000000000000000000000000000008152600401611fc79061344f565b60405180910390fd5b505050565b6000808273ffffffffffffffffffffffffffffffffffffffff163b119050919050565b600073ffffffffffffffffffffffffffffffffffffffff168273ffffffffffffffffffffffffffffffffffffffff161415612068576040517f08c379a000000000000000000000000000000000000000000000000000000000815260040161205f90613661565b60405180910390fd5b61207181611b7a565b156120b1576040517f08c379a00000000000000000000000000000000000000000000000000000000081526004016120a8906136cd565b60405180910390fd5b6120bd60008383611c78565b6001600360008473ffffffffffffffffffffffffffffffffffffffff1673ffffffffffffffffffffffffffffffffffffffff168152602001908152602001600020600082825461210d9190612da8565b92505081905550816002600083815260200190815260200160002060006101000a81548173ffffffffffffffffffffffffffffffffffffffff021916908373ffffffffffffffffffffffffffffffffffffffff160217905550808273ffffffffffffffffffffffffffffffffffffffff16600073ffffffffffffffffffffffffffffffffffffffff167fddf252ad1be2c89b69c2b068fc378daa952ba7f163c4a11628f55a4df523b3ef60405160405180910390a46121ce60008383611c7d565b5050565b6040518060600160405280600390602082028036833780820191505090505090565b82805461220090612b39565b90600052602060002090601f0160209004810192826122225760008555612269565b82601f1061223b57805160ff1916838001178555612269565b82800160010185558215612269579182015b8281111561226857825182559160200191906001019061224d565b5b509050612276919061227a565b5090565b5b8082111561229357600081600090555060010161227b565b5090565b6000604051905090565b600080fd5b600080fd5b60007fffffffff0000000000000000000000000000000000000000000000000000000082169050919050565b6122e0816122ab565b81146122eb57600080fd5b50565b6000813590506122fd816122d7565b92915050565b600060208284031215612319576123186122a1565b5b6000612327848285016122ee565b91505092915050565b60008115159050919050565b61234581612330565b82525050565b6000602082019050612360600083018461233c565b92915050565b600081519050919050565b600082825260208201905092915050565b60005b838110156123a0578082015181840152602081019050612385565b838111156123af576000848401525b50505050565b6000601f19601f8301169050919050565b60006123d182612366565b6123db8185612371565b93506123eb818560208601612382565b6123f4816123b5565b840191505092915050565b6000602082019050818103600083015261241981846123c6565b905092915050565b6000819050919050565b61243481612421565b811461243f57600080fd5b50565b6000813590506124518161242b565b92915050565b60006020828403121561246d5761246c6122a1565b5b600061247b84828501612442565b91505092915050565b600073ffffffffffffffffffffffffffffffffffffffff82169050919050565b60006124af82612484565b9050919050565b6124bf816124a4565b82525050565b60006020820190506124da60008301846124b6565b92915050565b6124e9816124a4565b81146124f457600080fd5b50565b600081359050612506816124e0565b92915050565b60008060408385031215612523576125226122a1565b5b6000612531858286016124f7565b925050602061254285828601612442565b9150509250929050565b61255581612421565b82525050565b6000602082019050612570600083018461254c565b92915050565b600080fd5b7f4e487b7100000000000000000000000000000000000000000000000000000000600052604160045260246000fd5b6125b3826123b5565b810181811067ffffffffffffffff821117156125d2576125d161257b565b5b80604052505050565b60006125e5612297565b90506125f182826125aa565b919050565b600067ffffffffffffffff8211156126115761261061257b565b5b602082029050602081019050919050565b600080fd5b600061263a612635846125f6565b6125db565b9050808382526020820190506020840283018581111561265d5761265c612622565b5b835b8181101561268657806126728882612442565b84526020840193505060208101905061265f565b5050509392505050565b600082601f8301126126a5576126a4612576565b5b81356126b5848260208601612627565b91505092915050565b600080604083850312156126d5576126d46122a1565b5b60006126e385828601612442565b925050602083013567ffffffffffffffff811115612704576127036122a6565b5b61271085828601612690565b9150509250929050565b600080600060608486031215612733576127326122a1565b5b6000612741868287016124f7565b9350506020612752868287016124f7565b925050604061276386828701612442565b9150509250925092565b7f4e487b7100000000000000000000000000000000000000000000000000000000600052602160045260246000fd5b600381106127ad576127ac61276d565b5b50565b60008190506127be8261279c565b919050565b60006127ce826127b0565b9050919050565b6127de816127c3565b82525050565b60006020820190506127f960008301846127d5565b92915050565b600060208284031215612815576128146122a1565b5b6000612823848285016124f7565b91505092915050565b61283581612330565b811461284057600080fd5b50565b6000813590506128528161282c565b92915050565b6000806040838503121561286f5761286e6122a1565b5b600061287d858286016124f7565b925050602061288e85828601612843565b9150509250929050565b600080fd5b600067ffffffffffffffff8211156128b8576128b761257b565b5b6128c1826123b5565b9050602081019050919050565b82818337600083830152505050565b60006128f06128eb8461289d565b6125db565b90508281526020810184848401111561290c5761290b612898565b5b6129178482856128ce565b509392505050565b600082601f83011261293457612933612576565b5b81356129448482602086016128dd565b91505092915050565b60008060008060808587031215612967576129666122a1565b5b6000612975878288016124f7565b9450506020612986878288016124f7565b935050604061299787828801612442565b925050606085013567ffffffffffffffff8111156129b8576129b76122a6565b5b6129c48782880161291f565b91505092959194509250565b6000819050919050565b6129e3816129d0565b82525050565b60006020820190506129fe60008301846129da565b92915050565b600060039050919050565b600081905092915050565b6000819050919050565b612a2d81612421565b82525050565b6000612a3f8383612a24565b60208301905092915050565b6000602082019050919050565b612a6181612a04565b612a6b8184612a0f565b9250612a7682612a1a565b8060005b83811015612aa7578151612a8e8782612a33565b9650612a9983612a4b565b925050600181019050612a7a565b505050505050565b6000606082019050612ac46000830184612a58565b92915050565b60008060408385031215612ae157612ae06122a1565b5b6000612aef858286016124f7565b9250506020612b00858286016124f7565b9150509250929050565b7f4e487b7100000000000000000000000000000000000000000000000000000000600052602260045260246000fd5b60006002820490506001821680612b5157607f821691505b60208210811415612b6557612b64612b0a565b5b50919050565b7f4552433732313a20617070726f76616c20746f2063757272656e74206f776e6560008201527f7200000000000000000000000000000000000000000000000000000000000000602082015250565b6000612bc7602183612371565b9150612bd282612b6b565b604082019050919050565b60006020820190508181036000830152612bf681612bba565b9050919050565b7f4552433732313a20617070726f76652063616c6c6572206973206e6f7420746f60008201527f6b656e206f776e6572206e6f7220617070726f76656420666f7220616c6c0000602082015250565b6000612c59603e83612371565b9150612c6482612bfd565b604082019050919050565b60006020820190508181036000830152612c8881612c4c565b9050919050565b6000604082019050612ca460008301856124b6565b612cb160208301846124b6565b9392505050565b7f4552433732313a2063616c6c6572206973206e6f7420746f6b656e206f776e6560008201527f72206e6f7220617070726f766564000000000000000000000000000000000000602082015250565b6000612d14602e83612371565b9150612d1f82612cb8565b604082019050919050565b60006020820190508181036000830152612d4381612d07565b9050919050565b7f4e487b7100000000000000000000000000000000000000000000000000000000600052603260045260246000fd5b7f4e487b7100000000000000000000000000000000000000000000000000000000600052601160045260246000fd5b6000612db382612421565b9150612dbe83612421565b9250827fffffffffffffffffffffffffffffffffffffffffffffffffffffffffffffffff03821115612df357612df2612d79565b5b828201905092915050565b6000612e0982612421565b91507fffffffffffffffffffffffffffffffffffffffffffffffffffffffffffffffff821415612e3c57612e3b612d79565b5b600182019050919050565b600081905092915050565b50565b6000612e62600083612e47565b9150612e6d82612e52565b600082019050919050565b6000612e8382612e55565b9150819050919050565b7f63616c6c206661696c6564000000000000000000000000000000000000000000600082015250565b6000612ec3600b83612371565b9150612ece82612e8d565b602082019050919050565b60006020820190508181036000830152612ef281612eb6565b9050919050565b7f4552433732313a20696e76616c696420746f6b656e2049440000000000000000600082015250565b6000612f2f601883612371565b9150612f3a82612ef9565b602082019050919050565b60006020820190508181036000830152612f5e81612f22565b9050919050565b7f4552433732313a2061646472657373207a65726f206973206e6f74206120766160008201527f6c6964206f776e65720000000000000000000000000000000000000000000000602082015250565b6000612fc1602983612371565b9150612fcc82612f65565b604082019050919050565b60006020820190508181036000830152612ff081612fb4565b9050919050565b600067ffffffffffffffff82169050919050565b61301481612ff7565b82525050565b600061ffff82169050919050565b6130318161301a565b82525050565b600063ffffffff82169050919050565b61305081613037565b82525050565b6000819050919050565b6000819050919050565b600061308561308061307b84613056565b613060565b613037565b9050919050565b6130958161306a565b82525050565b600060a0820190506130b060008301886129da565b6130bd602083018761300b565b6130ca6040830186613028565b6130d76060830185613047565b6130e4608083018461308c565b9695505050505050565b6000815190506130fd8161242b565b92915050565b600060208284031215613119576131186122a1565b5b6000613127848285016130ee565b91505092915050565b600081905092915050565b600061314682612366565b6131508185613130565b9350613160818560208601612382565b80840191505092915050565b6000613178828561313b565b9150613184828461313b565b91508190509392505050565b7f4e487b7100000000000000000000000000000000000000000000000000000000600052601260045260246000fd5b60006131ca82612421565b91506131d583612421565b9250826131e5576131e4613190565b5b828206905092915050565b600060408201905061320560008301856127d5565b61321260208301846124b6565b9392505050565b7f4552433732313a207472616e736665722066726f6d20696e636f72726563742060008201527f6f776e6572000000000000000000000000000000000000000000000000000000602082015250565b6000613275602583612371565b915061328082613219565b604082019050919050565b600060208201905081810360008301526132a481613268565b9050919050565b7f4552433732313a207472616e7366657220746f20746865207a65726f2061646460008201527f7265737300000000000000000000000000000000000000000000000000000000602082015250565b6000613307602483612371565b9150613312826132ab565b604082019050919050565b60006020820190508181036000830152613336816132fa565b9050919050565b600061334882612421565b915061335383612421565b92508282101561336657613365612d79565b5b828203905092915050565b7f4552433732313a20617070726f766520746f2063616c6c657200000000000000600082015250565b60006133a7601983612371565b91506133b282613371565b602082019050919050565b600060208201905081810360008301526133d68161339a565b9050919050565b7f4552433732313a207472616e7366657220746f206e6f6e20455243373231526560008201527f63656976657220696d706c656d656e7465720000000000000000000000000000602082015250565b6000613439603283612371565b9150613444826133dd565b604082019050919050565b600060208201905081810360008301526134688161342c565b9050919050565b7f45524337323155524953746f726167653a2055524920736574206f66206e6f6e60008201527f6578697374656e7420746f6b656e000000000000000000000000000000000000602082015250565b60006134cb602e83612371565b91506134d68261346f565b604082019050919050565b600060208201905081810360008301526134fa816134be565b9050919050565b600081519050919050565b600082825260208201905092915050565b600061352882613501565b613532818561350c565b9350613542818560208601612382565b61354b816123b5565b840191505092915050565b600060808201905061356b60008301876124b6565b61357860208301866124b6565b613585604083018561254c565b8181036060830152613597818461351d565b905095945050505050565b6000815190506135b1816122d7565b92915050565b6000602082840312156135cd576135cc6122a1565b5b60006135db848285016135a2565b91505092915050565b60006135ef82612421565b91506135fa83612421565b92508261360a57613609613190565b5b828204905092915050565b7f4552433732313a206d696e7420746f20746865207a65726f2061646472657373600082015250565b600061364b602083612371565b915061365682613615565b602082019050919050565b6000602082019050818103600083015261367a8161363e565b9050919050565b7f4552433732313a20746f6b656e20616c7265616479206d696e74656400000000600082015250565b60006136b7601c83612371565b91506136c282613681565b602082019050919050565b600060208201905081810360008301526136e6816136aa565b905091905056fea264697066735822122000601daaee79a4a5501833a46b1aeef5474ae1cacd69cf3767865d0543676a4e64736f6c63430008080033",
  "devdoc": {
    "kind": "dev",
    "methods": {
      "approve(address,uint256)": {
        "details": "See {IERC721-approve}."
      },
      "balanceOf(address)": {
        "details": "See {IERC721-balanceOf}."
      },
      "getApproved(uint256)": {
        "details": "See {IERC721-getApproved}."
      },
      "isApprovedForAll(address,address)": {
        "details": "See {IERC721-isApprovedForAll}."
      },
      "name()": {
        "details": "See {IERC721Metadata-name}."
      },
      "ownerOf(uint256)": {
        "details": "See {IERC721-ownerOf}."
      },
      "safeTransferFrom(address,address,uint256)": {
        "details": "See {IERC721-safeTransferFrom}."
      },
      "safeTransferFrom(address,address,uint256,bytes)": {
        "details": "See {IERC721-safeTransferFrom}."
      },
      "setApprovalForAll(address,bool)": {
        "details": "See {IERC721-setApprovalForAll}."
      },
      "supportsInterface(bytes4)": {
        "details": "See {IERC165-supportsInterface}."
      },
      "symbol()": {
        "details": "See {IERC721Metadata-symbol}."
      },
      "tokenURI(uint256)": {
        "details": "See {IERC721Metadata-tokenURI}."
      },
      "transferFrom(address,address,uint256)": {
        "details": "See {IERC721-transferFrom}."
      }
    },
    "version": 1
  },
  "userdoc": {
    "kind": "user",
    "methods": {},
    "version": 1
  },
  "storageLayout": {
    "storage": [
      {
        "astId": 1137,
        "contract": "contracts/randomIpfsNft.sol:randomlpfsNft",
        "label": "_name",
        "offset": 0,
        "slot": "0",
        "type": "t_string_storage"
      },
      {
        "astId": 1139,
        "contract": "contracts/randomIpfsNft.sol:randomlpfsNft",
        "label": "_symbol",
        "offset": 0,
        "slot": "1",
        "type": "t_string_storage"
      },
      {
        "astId": 1143,
        "contract": "contracts/randomIpfsNft.sol:randomlpfsNft",
        "label": "_owners",
        "offset": 0,
        "slot": "2",
        "type": "t_mapping(t_uint256,t_address)"
      },
      {
        "astId": 1147,
        "contract": "contracts/randomIpfsNft.sol:randomlpfsNft",
        "label": "_balances",
        "offset": 0,
        "slot": "3",
        "type": "t_mapping(t_address,t_uint256)"
      },
      {
        "astId": 1151,
        "contract": "contracts/randomIpfsNft.sol:randomlpfsNft",
        "label": "_tokenApprovals",
        "offset": 0,
        "slot": "4",
        "type": "t_mapping(t_uint256,t_address)"
      },
      {
        "astId": 1157,
        "contract": "contracts/randomIpfsNft.sol:randomlpfsNft",
        "label": "_operatorApprovals",
        "offset": 0,
        "slot": "5",
        "type": "t_mapping(t_address,t_mapping(t_address,t_bool))"
      },
      {
        "astId": 2125,
        "contract": "contracts/randomIpfsNft.sol:randomlpfsNft",
        "label": "_tokenURIs",
        "offset": 0,
        "slot": "6",
        "type": "t_mapping(t_uint256,t_string_storage)"
      },
      {
        "astId": 2939,
        "contract": "contracts/randomIpfsNft.sol:randomlpfsNft",
        "label": "map",
        "offset": 0,
        "slot": "7",
        "type": "t_mapping(t_uint256,t_address)"
      },
      {
        "astId": 2941,
        "contract": "contracts/randomIpfsNft.sol:randomlpfsNft",
        "label": "s_tokenCounter",
        "offset": 0,
        "slot": "8",
        "type": "t_uint256"
      },
      {
        "astId": 2947,
        "contract": "contracts/randomIpfsNft.sol:randomlpfsNft",
        "label": "s_dogTokenUris",
        "offset": 0,
        "slot": "9",
        "type": "t_array(t_string_storage)dyn_storage"
      }
    ],
    "types": {
      "t_address": {
        "encoding": "inplace",
        "label": "address",
        "numberOfBytes": "20"
      },
      "t_array(t_string_storage)dyn_storage": {
        "base": "t_string_storage",
        "encoding": "dynamic_array",
        "label": "string[]",
        "numberOfBytes": "32"
      },
      "t_bool": {
        "encoding": "inplace",
        "label": "bool",
        "numberOfBytes": "1"
      },
      "t_mapping(t_address,t_bool)": {
        "encoding": "mapping",
        "key": "t_address",
        "label": "mapping(address => bool)",
        "numberOfBytes": "32",
        "value": "t_bool"
      },
      "t_mapping(t_address,t_mapping(t_address,t_bool))": {
        "encoding": "mapping",
        "key": "t_address",
        "label": "mapping(address => mapping(address => bool))",
        "numberOfBytes": "32",
        "value": "t_mapping(t_address,t_bool)"
      },
      "t_mapping(t_address,t_uint256)": {
        "encoding": "mapping",
        "key": "t_address",
        "label": "mapping(address => uint256)",
        "numberOfBytes": "32",
        "value": "t_uint256"
      },
      "t_mapping(t_uint256,t_address)": {
        "encoding": "mapping",
        "key": "t_uint256",
        "label": "mapping(uint256 => address)",
        "numberOfBytes": "32",
        "value": "t_address"
      },
      "t_mapping(t_uint256,t_string_storage)": {
        "encoding": "mapping",
        "key": "t_uint256",
        "label": "mapping(uint256 => string)",
        "numberOfBytes": "32",
        "value": "t_string_storage"
      },
      "t_string_storage": {
        "encoding": "bytes",
        "label": "string",
        "numberOfBytes": "32"
      },
      "t_uint256": {
        "encoding": "inplace",
        "label": "uint256",
        "numberOfBytes": "32"
      }
    }
  }
}